:0F0CE2000112000A083F065B4F666D7D077F6FAA
:100CC700D3EF9400EE64809480400F7DFADDFE7DC3
:0A0CD700F8DDFEEF1F70E91E80E655
:010CE10022F0
:100C6E007590FFEE7052EFB40A00504C900C81F864
:100C7E00282873020C9F020CA3020CA7020CAB02D5
:100C8E000CAF020CB3020CB7020CBB020CBF020C71
:100C9E00C38508902285099022850A9022850B90A3
:100CAE0022850C9022850D9022850E9022850F9024
:090CBE002285109022851190227C
:100B4100E4F513F514F515F516F51AF519F518F57B
:100B510017ACA0E4120A297B0A7AD779A3783C1250
:100B610008008F1A8E198D188C177BCD7ACC794C91
:100B7100783E1209098F1A8E198D188C17E4FFFE21
:100B81007D807C3FAB1AAA19A918A8171209A640A3
:100B91003AE4FFFE7D207C41AB1AAA19A918A817D7
:100BA1001209A65026E4FFFE7D7A7C44AB1AAA19ED
:100BB100A918A817120800120A5D8E138F147C035E
:100BC1007DE8120ADE8E158F168009E4F515F516FB
:100BD100AF16AE15120C6E7F057E00120CC7020B0C
:010BE10052C1
:10080000EC4D6011E8497017ED33EC3304600DE4F2
:10081000FCFFFEFD22E933E8330470F8020AC91236
:100820000A9458046009E4CC248150062850090237
:100830000AD3284003020AD0C0E0EB4A7044B980D2
:1008400006D0E0FB020ABFEF4E701CBD8008EBFF34
:10085000EAFEE9FD80EBE98DF0A4FEE5F00208E98F
:10086000E9CDF9EAFEEBFFEF89F0A4FCE5F0CE89D3
:10087000F0A42EFFE435F0CD89F0A42DFEE435F090
:100880008067EF4E7005BD80D780C3EF8BF0A4ACBE
:10089000F0EE8BF0A42CFCE435F0F8EF8AF0A42CF9
:1008A000E5F038FCE433CB8DF0A42CFCE5F03BF80C
:1008B000EE8AF0A42CFCE5F038F8E433CF89F0A4FC
:1008C0002CFCE5F038CF3400CE89F0A42FFFE5F002
:1008D0003EFEE433C98DF0A42EFEE5F039CD8AF05A
:1008E000A42FFFE5F03EFEE43DFD33D0E0FB5007D2
:1008F0000BBB000F020AD3EC2CFCEF33FFEE33FEF0
:06090000ED33FD020AAB1D
:10090600020AD3EC5D046005E859047003020AC9C3
:10091600120A94580460F6EC4860F2EC7004FDFE8E
:10092600FF22C860DB2481C85009C39860025006C4
:10093600020AD09850CAF582E9294B4A7005AB8263
:10094600020ABF75F0007C1A7880C3EF9BEE9AED21
:1009560099400DC3EF9BFFEE9AFEED99FDE842F03C
:10096600DC23ACF0D0E0FFD0E0FED0E0FDAB82208F
:10097600E7101BEB60BAEC2CFCEF33FFEE33FEED19
:1009860033FD020AABE803F830E705C0F075F00066
:10099600EF2FFFEE33FEED33FD40B830E7C280AAFD
:1009A60074F8CC6480CCC86480C8F58204604FC3F8
:1009B600EB9FF5F0EA9E42F0E99D42F0E89C45F097
:1009C600603C501DE5825FFFE582D313CB5BCBF421
:1009D6002B5582FB50280ABA002409B9002008804A
:1009E6001DE5825BFBE582D313CF5FCFF4C3132FE4
:1009F6005582FF50090EBE00050DBD00010CC3EB6C
:100A06009FF5F0EA9E42F0E99D42F0E89C45F060D1
:090A160007CC4820E701B3EC22F3
:100A1F0075F020800E75F010800575F0087D007E52
:100A2F00007F003392D530D503120B33EC334010D7
:100A3F00EF33FFEE33FEED33FDEC33FCD5F0ED225B
:0E0A4F00E5F0247EA2D513CC92E7CDCEFF2297
:100A5D00EDD2E7CD33EC3392D524814006E4FFFE91
:100A6D00FDFC22FCE4CFCECDCC24E0501174FF80F0
:100A7D00EDC3CC13CCCD13CDCE13CECF13CF04708D
:070A8D00F030D5DE020B334F
:100A9400E9D2E7C933E833F892D5EDD2E7CD33ECA8
:070AA40033FC5002B2D52221
:100AAB00EC30E7100FBF000C0EBE00080DBD0004AC
:100ABB000BEB6014A2D5EB13FCED92E7FD2274FF58
:100ACB00FCFDFEFF22E480F8A2D574FF13FC7D80B1
:030ADB00E480EFC5
:03000000020BE20E
:0C0BE200787FE4F6D8FD75811A020C291A
:100ADE00BC000BBE0029EF8DF084FFADF022E4CCFC
:100AEE00F875F008EF2FFFEE33FEEC33FCEE9DECC5
:100AFE00984005FCEE9DFE0FD5F0E9E4CEFD22ED0B
:100B0E00F8F5F0EE8420D21CFEADF075F008EF2F54
:100B1E00FFED33FD4007985006D5F0F222C398FD45
:050B2E000FD5F0EA22E2
:0E0B3300C3E49FFFE49EFEE49DFDE49CFC22D3
:100BEE00020B41E493A3F8E493A34003F68001F2D1
:100BFE0008DFF48029E493A3F85407240CC8C33308
:100C0E00C4540F4420C8834004F456800146F6DFD6
:100C1E00E4800B0102040810204080900CE2E47E78
:100C2E00019360BCA3FF543F30E509541FFEE493CB
:100C3E00A360010ECF54C025E060A840B8E493A392
:100C4E00FAE493A3F8E493A3C8C582C8CAC583CABD
:100C5E00F0A3C8C582C8CAC583CADFE9DEE780BE75
:010CF1000002
:00000001FF
